:020000040800F2
:100000005811002059020008730A0008D30600089E
:10001000710A0008C5020008C10C000800000000B9
:100020000000000000000000000000009D0100082A
:10003000C702000800000000F1010008A90A00083A
:1000400073020008730200087302000873020008BC
:1000500073020008730200087302000873020008AC
:10006000730200087302000873020008730200089C
:10007000730200087302000873020008730200088C
:10008000730200087302000873020008730200087C
:10009000730200087302000873020008730200086C
:1000A00073020008F50B00087302000873020008D1
:1000B000730200087302000873020008730200084C
:1000C000730200087302000873020008730200083C
:1000D000730200087302000873020008730200082C
:1000E000730200087302000873020008730200081C
:1000F000730200087302000873020008730200080C
:1001000073020008730200087302000873020008FB
:1001100073020008730200087302000873020008EB
:1001200073020008730200087302000873020008DB
:1001300073020008730200087302000873020008CB
:1001400073020008730200087302000873020008BB
:1001500073020008730200087302000873020008AB
:10016000730200087302000873020008730200089B
:100170007302000873020008730200080000000008
:100180007302000873020008DFF80CD000F088F852
:1001900000480047E10C0008581100202B4B19685B
:1001A0000868B0E8F04F80F30988BFF36F8F4FF015
:1001B000000080F3118870470000000006480068C6
:1001C000006880F3088862B661B6BFF34F8FBFF353
:1001D0006F8F00DF00BF00BF08ED00E0DFF80C000C
:1001E000016841F470010160704700BF88ED00E0D4
:1001F000EFF30980BFF36F8F144B1A681EF0100FD6
:1002000008BF20ED108A20E9F04F106008B44FF0CD
:10021000500080F31188BFF34F8FBFF36F8F01F051
:10022000D3F84FF0000080F3118808BC1968086803
:10023000B0E8F04F1EF0100F08BFB0EC108A80F34A
:100240000988BFF36F8F704700BF00BF30000020E8
:10025000EFF30580704700000648804706480047D6
:10026000FEE7FEE7FEE7FEE7FEE7FEE7FEE7FEE766
:10027000FEE7FEE7B10B00088901000840EA010330
:100280009B0703D009E008C9121F08C0042AFAD24C
:1002900003E011F8013B00F8013B521EF9D2704710
:1002A000064C074D06E0E06840F0010394E80700C3
:1002B00098471034AC42F6D3FFF76AFF581700088E
:1002C00078170008FEE7704702480168491C016082
:1002D000704700000400002010B5032000F0AEF8C5
:1002E000002000F005F800F03DF8002010BD0000EF
:1002F00000B5014687B00022192000F07FF81920D0
:1003000000F070F81348016E41F400610166006E60
:1003100005A900F400600690684600F0A1F800F01E
:10032000BFF80D490D4AB0FBF1F10D48491E0260BE
:10033000416040F2E7320021C0E90321816000F012
:10034000C2F810B1012007B000BD054800F0D8F890
:10035000F9E700000010024040420F00002C01406D
:100360006C0000201E4808B5016E41F001010166D5
:10037000016E01F001010091816D41F080518165B4
:10038000806D00F080500090032000F057F80022AC
:1003900011466FF00B0000F031F8002211466FF0AB
:1003A0000A0000F02BF8002211466FF0090000F05F
:1003B00025F800221146501F00F020F800221146B7
:1003C000101F00F01BF800220F21901E00F016F8FD
:1003D00000220F21BDE80840501E00F00FB80000B9
:1003E0000010024000F01F020121914040098000EE
:1003F00000F1E020C0F8001170470000F0B40E4B8F
:100400001B680C46C3F30223C3F10705042D00D972
:100410000425191D072901D2002300E0DB1E012657
:1004200006FA05F1491E214099409E40761E16406D
:100430003143F0BC00F01EBB0CED00E0064900F0BB
:10044000070208684FF6FF03184040EA0220034AFB
:1004500010430860704700000CED00E00000FA0552
:100460000F2202600C4A936803F003034360936811
:1004700003F0F0038360936803F4E063C360926861
:100480004FF4E06303EAD20202610448006800F01E
:100490000700086070470000001002400020024082
:1004A0000448054900688968044AC1F3C221515CC7
:1004B000C8407047080000200010024044170008A0
:1004C00070477047704710B5040003D094F83D00A2
:1004D00010B107E0012010BD002084F83C00204648
:1004E00000F00CF8022084F83D00211D206800F087
:1004F00087FB012084F83D00002010BD70470000FC
:100500000168CA6842F00102CA600068826807494F
:100510000A40062A08D082680A40B2F5803F03D01C
:10052000016841F0010101600020704707000100EF
:10053000704770B50446006801694FF00005C94373
:10054000890715D4C168C943890711D4E91E01611F
:1005500001202077206880698007204602D0FFF7BD
:10056000E7FF04E000F0A7F8204600F0A5F82577A3
:1005700020680169C943490717D4C168C9434907BD
:1005800013D46FF004010161022020772068806994
:1005900010F4407F204602D0FFF7CAFF04E000F0CD
:1005A0008AF8204600F088F8257720680169C94359
:1005B000090716D4C168C943090712D46FF00801AE
:1005C0000161042020772068C0698007204602D09E
:1005D000FFF7AEFF04E000F06EF8204600F06CF884
:1005E000257720680169C943C90617D4C168C94382
:1005F000C90613D46FF0100101610820207720682C
:10060000C06910F4407F204602D0FFF791FF04E05C
:1006100000F051F8204600F04FF825772068016976
:10062000C943C90708D1C168C943C90704D1891E94
:100630000161204600F042F820680169C9430906BB
:1006400009D4C168C943090605D46FF0800101616E
:100650002046FFF736FF20680169C943C90509D460
:10066000C168C943090605D46FF480710161204651
:10067000FFF726FF20680169C943490609D4C1680C
:10068000C943490605D46FF040010161204600F0DE
:100690001FF820680169C94389060BD4C168C943A2
:1006A000890607D46FF0200101612046BDE8704043
:1006B000FFF708BF70BD704770470000006803492E
:1006C000884201D1FFF700BE70470000002C0140B6
:1006D0007047FEE7044908B5CA6C0243CA64C96C96
:1006E0000140009108BD000000100240F0B54D4AE5
:1006F0004C4C077A20320126251F131F0168002F5A
:1007000071D091B1477A3FB3012F2DD0022F2ED057
:100710000026857A4DB1434908310C1F012D2ED09A
:10072000022D35D0032D39D000264168002967D02D
:10073000447A8CB3012C42D0022C43D00026837A19
:100740005BB3384928310A1F012B43D0022B4BD011
:10075000032B4DD0002653E027688F4327600168A4
:100760002C680C432C60D4E72F688F4301E02F687E
:100770000F432F60016825680D432560C9E70568B0
:100780000F68AF430F60016825680D432560CCE713
:1007900005682768AF4304E009E031E00568276891
:1007A0002F43276004680D6825430D60BDE714687A
:1007B0008C43146041681A680A431A60BFE71C68DA
:1007C0008C4301E01C680C431C60416813680B43B8
:1007D0001360B4E743680C689C430C604068116880
:1007E000014311600CE00DE0436814689C4302E093
:1007F000436814681C43146040680A6802430A6036
:100800003046F0BD2F688F432F60016825688D4307
:10081000256041681C688C431C60406811688143F6
:10082000DFE7000004040140F0B50A68032492FAEF
:10083000A2F2B2FA82F30F257EE0324601269E40F4
:10084000324078D0D1F804E0066892FAA2F7B7FAFD
:1008500087F74FEA470C04FA0CF7BE4392FAA2F767
:10086000B7FA87F77F000EFA07FE46EA0E06066023
:100870004E68012E01D0022E15D1D1F808E086680D
:1008800092FAA2F7B7FA87F74FEA470C04FA0CF787
:10089000BE4392FAA2F7B7FA87F77F000EFA07FE77
:1008A00046EA0E068660D1F810C0C66892FAA2F732
:1008B000B7FA87F77F0004FA07FE92FAA2F7B7FAB1
:1008C00087F77F0026EA0E060CFA07FC46EA0C06BC
:1008D000C6604E68022E2ED192FAA2F6B6FA86F6BD
:1008E000082E4E6913D2076A92FAA2FCBCFA8CFC5D
:1008F0004FEA8C0C05FA0CFC92FAA2F2B2FA82F2E0
:10090000920027EA0C0796403743076213E0476AD4
:10091000120A92FAA2FCBCFA8CFC4FEA8C0C05FA83
:100920000CFC92FAA2F2B2FA82F2920027EA0C07C9
:100930009640374347625B1C0A681646DA407FF4EC
:100940007CAF4A68012A01D0022A07D1CB684168EE
:100950003246914306FB03F2114341600120F0BD92
:100960004FF47A71B0FBF1F14FF0E020491E416184
:100970000021816105210161704700000149086083
:10098000704700000800002000B585B01422064919
:100990006846FFF773FC0021684600F0C8F9034978
:1009A000086005B000BD00003017000800000020FE
:1009B0002DE9F0418AB00420FFF78CFE0120FFF7FB
:1009C00089FE4FF090482020C8F8280026490220D0
:1009D00003268A68F02393FAA3F3B3FA83F322F091
:1009E000F002984002438A60002401274D148DF8DC
:1009F0002070CDE906548DF8214002208DF82200A8
:100A000006A8FFF773FE1948C16895FAA5F2B2FA75
:100A100082F2520006FA02F2914395FAA5F2B2FA76
:100A200082F2520004FA02F21143C160016895FAA1
:100A3000A5F2B2FA82F25200964095FAA5F2B2FA05
:100A400082F25200B14304FA02F211430160202005
:100A5000CDE90007CDE90274694640460494FFF7EA
:100A6000E3FE0AB0BDE8F0810C0001400008004838
:100A7000FEE770470907090E002806DA00F00F00AC
:100A800000F1E02080F8141D704700F1E02080F8AC
:100A9000001470474FF09044606980F0200060615E
:100AA000642000F02EF9F7E700F037B9394810B5A7
:100AB000016821F0070141F004010160006800F0C5
:100AC0000700042800D0FEE73348016821F4C06124
:100AD00041F4007101603148016841F480710160A6
:100AE0000168C1F380210029FAD0416821F0F85152
:100AF00041F080514160C26840F60221284B1A4003
:100B00001143C160C16841F08071C160016841F06A
:100B1000807101600168C1F340610029FAD08168E9
:100B200041F003018160816801F00C010C29FAD1C8
:100B3000816821F0F0018160816821F4E0618160C9
:100B4000816821F460518160164C2046FFF708FF50
:100B50004FF0E021086940F0040008612046FFF7EB
:100B60000DFF11480068C0F30220C0F10702042AFB
:100B700000D90422011D072901D2002000E0C01E77
:100B800001219140491E81400801084981F8140D56
:100B900010BD000000200240007000400010024024
:100BA0008C80FFF900B4C4040CED00E00FE000E01D
:100BB0000D48016841F4700101600C48016841F082
:100BC00001010160002181600268094B1A40026046
:100BD0008214C260026822F48022026081610249AC
:100BE000C00380390860704788ED00E000100240C3
:100BF000FFFFF6EA0148FFF79CBC00006C000020F4
:100C00002DE9F0470268264B264D274E274F284CEA
:100C10004FF0804A984209D0504507D0A84205D0ED
:100C2000B04203D0B84201D0A04204D122F0700CEF
:100C30004A6842EA0C02DFF87CC0DFF87C80DFF80B
:100C40007C9098420FD050450DD0A8420BD0B042B6
:100C500009D0B84207D0A04205D0604503D0404536
:100C600001D0484503D122F44075CA682A434D6932
:100C700022F080022A4302608A68C2620A688262A5
:100C8000984207D0A04205D0604503D0404501D02E
:100C9000484501D10969016301214161BDE8F0873F
:100CA000002C01400004004000080040000C0040FF
:100CB0000034014000400140004401400048014030
:100CC000FEE702E008C8121F08C1002AFAD17047E7
:100CD0007047002001E001C1121F002AFBD17047BC
:100CE000FFF7FAFAFFF7E2FEFFF762FEFFF74CFEAE
:100CF00000F00EF8FEE701460020842900D0C81C51
:100D0000704710B500B9012000F0FCFA002010BDBA
:100D100010B500F01DFB002010BD10B500F034FC34
:100D2000012803D0BDE8104000F0ECBB10BD3EB57B
:100D300004460D46B0F90800FFF7DDFF02A9CDE932
:100D40000001208A2B4682B2D4E9001000F0F0FBAB
:100D5000012801D000203EBD02983EBD2DE9F041A2
:100D6000184C0F460546E6682068001D00F014FA8E
:100D700038B9206890F82C100120884021698143FF
:100D80002161681C07D137B12168BDE8F0410E48E8
:100D9000091D00F039BA20683544B5424560216824
:100DA00005D2A06BBDE8F041091D00F015BA606BDB
:100DB000091D00F011FAA06A854200D2A562BDE8C3
:100DC000F081000030000020400D00202DE9F041AE
:100DD000054600F025FA2E4CA068401CA060206853
:100DE0002C4F10B1606940B32DE02560A068012848
:100DF00029D1002606EB860007EB800000F0DEF923
:100E0000761C072EF6D323488C3000F0D7F9214802
:100E1000A03000F0D3F91F48B43000F0CFF91D48DE
:100E2000C83000F0CBF91B48DC3000F0C7F9194896
:100E30008C3060631430A06305E02068E96AC06A02
:100E4000884200D82560606A401C6062E96A01201F
:100E5000226988401043206101EB810007EB80008C
:100E6000291D00F0D1F900F0FBF9606900280CD0D1
:100E70002068E96AC06A884207D207494FF080506B
:100E80000860BFF34F8FBFF36F8FBDE8F0810000A4
:100E900030000020640C002004ED00E070B5114E1D
:100EA000114C17E000F088FA3068B8B100F0DEFBB2
:100EB00000F0B6F9F068C568281D00F06DF9A0686B
:100EC000401EA0606068401E606000F0C9F92846BE
:100ED00000F00CF860680028E4D170BD00F0C6FB9B
:100EE000F8E700002C0D00203000002010B504466B
:100EF000006B00F0C9F92046BDE8104000F0C4B90D
:100F00000F4840F6B831420705D0C01D0C4A20F00A
:100F10000700821A891A0B4A00230144C2E9000320
:100F20000839103A21F0070111604B600B600B1A71
:100F3000C0E9001393604FF000405360D0607047E9
:100F4000AC0000201C000020074C4FF08056074DDD
:100F5000FFF7A4FF20680128FAD92E60BFF34F8F56
:100F6000BFF36F8FF4E70000640C002004ED00E095
:100F70002DE9F0479A46DDE9098481466FF00303C5
:100F8000206B03EB82021044089D20F007067007D7
:100F900007D0502080F31188BFF34F8FBFF36F8FBE
:100FA000FEE723180A5C83F834200A5C12B1401C67
:100FB0001028F6D3002784F84370072D00D30625A8
:100FC000E562C4E91157201D00F003F904F118008F
:100FD00000F0FFF82461C5F107006462A061E764D6
:100FE00084F8507052464946304600F0BFF8206001
:100FF000B8F1000F01D0C8F80040BDE8F08700004C
:1010000030B5114900E011460A688242FBD34B68B3
:101010005C18844203D1406818444860084643681D
:101020001C18944209D1084C103C2468A24209D0F3
:1010300052681A4442600A6812680260814200D015
:10104000086030BD0460F9E71C0000200648416BD1
:10105000096829B1416BC968C968496881627047EC
:101060004FF0FF31FAE700003000002008484068E8
:10107000401C4FF0500080F3118804D0BFF34F8F15
:10108000BFF36F8FFEE7BFF34F8FBFF36F8FFEE7A6
:10109000240000202DE9F0410546002700F08CF9DE
:1010A000314E306808B9FFF72BFFF06805424BD18D
:1010B000C5B3083568070ED005F00700C0F1080079
:1010C0000544680707D0502080F31188BFF34F8F85
:1010D000BFF36F8FFEE72DB37068854234D8224886
:1010E000103001460C6801E020460C466168A942B8
:1010F00002D221680029F7D131688C4224D00768D8
:101100002168016060680837411B10290FD96019F8
:10111000420708D0502080F31188BFF34F8FBFF3F0
:101120006F8FFEE710E041606560FFF769FF61685F
:101130007068401A7060B268904200D2B060F06887
:1011400001430020C4E9000100F090FA780707D0BD
:10115000502080F31188BFF34F8FBFF36F8FFEE7EE
:101160003846BDE8F08100000C00002010B5031FD8
:101170004FF080741C601B1F21F001011960191FC2
:10118000044B0B6014390A60091F6FF002024438E7
:101190000A6010BD6D100008D0E9013201699A6043
:1011A000D0E901235A604A68824201D182684A60CC
:1011B000002202610868401E0860704700F10801C3
:1011C0004FF0FF32C0E90112C160016100210160EE
:1011D000704700210161704730B50B685A1C02D07E
:1011E00000F1080202E0026904E022465468256822
:1011F0009D42FAD953684B6099608A6051600861DA
:101200000168491C016030BD42684A6093688B6088
:1012100093685960916008610168491C01607047DA
:10122000502080F31188BFF34F8FBFF36F8F0A49AF
:101230004868401C486001280CD10848006810F03C
:10124000FF0F07D0502080F31188BFF34F8FBFF3FB
:101250006F8FFEE7704700002400002004ED00E0DF
:101260000849486828B1401E486001D180F31188C0
:101270007047502080F31188BFF34F8FBFF36F8FFB
:10128000FEE700002400002070B5002827D0144D90
:10129000A0F108046168E868014207D1502080F39A
:1012A0001188BFF34F8FBFF36F8FFEE722683AB10B
:1012B000502080F31188BFF34F8FBFF36F8FFEE78D
:1012C0008143616000F078F860686968084468608C
:1012D0002046FFF795FEBDE8704000F0C7B970BD2D
:1012E0000C00002006484FF47A710068B0FBF1F161
:1012F0004FF0E020491E4161072101617047000065
:101300000800002010B5020014D00F48006B38B15F
:10131000502080F31188BFF34F8FBFF36F8FFEE72C
:1013200000F04AF800211046FFF718FD00F09EF982
:10133000002807D105494FF080500860BFF34F8F58
:10134000BFF36F8F10BD00003000002004ED00E0FF
:101350001CB515480024CDE900402346802213A186
:10136000144800F0E5F8012809D0401C1AD150209B
:1013700080F31188BFF34F8FBFF36F8FFEE75020CC
:1013800080F31188BFF34F8FBFF36F8F06484FF084
:10139000FF312C38816201214161C460BDE81C40ED
:1013A00000F040B81CBD00005C00002049444C45E2
:1013B00000000000490F00080248016B491C01634E
:1013C00070470000300000201448016B11B101216A
:1013D000C16170470021C1610169B1FA81F1C1F1B8
:1013E0001F0101EB81020E4951F822306BB101EB74
:1013F000820101F108034A6852684A609A4201D1A9
:1014000052684A60D16801607047502080F31188AB
:10141000BFF34F8FBFF36F8FFEE700003000002057
:10142000640C00201CB532480168324A914207D151
:10143000502080F31188BFF34F8FBFF36F8FFEE70B
:1014400000682C49491E884207D1502080F311883A
:10145000BFF34F8FBFF36F8FFEE7274908780190E6
:10146000FF20087008788DF800009DF800009DF8B6
:10147000002000F0F000904207D0502080F3118847
:10148000BFF34F8FBFF36F8FFEE79DF800001B4A3D
:1014900000F0500010700720906005E09DF80030CB
:1014A0005B008DF80030401E9DF800301B06F5D41F
:1014B000000200F4E0609060019808700C48203051
:1014C000016841F470010160016841F07041016000
:1014D000FFF708FF00205060FEF780FE0848016813
:1014E00041F040410160FEF769FE00201CBD000094
:1014F00000ED00E071C20F4100E400E02400002094
:1015000034EF00E010B5502080F31188BFF34F8F07
:10151000BFF36F8F00F046F818B104494FF08050C8
:101520000860002080F3118810BD000004ED00E089
:101530002DE9FF5F8346DDE90E87994616468A4608
:101540009000FFF7A7FD05001AD05420FFF7A2FD79
:10155000040012D025630021CDE90241CDE90087C6
:101560004B46324651465846FFF702FD2046FFF7EC
:101570002DFC012004B0BDE8F09F2846FFF784FE53
:101580004FF0FF30F6E700000548416919B1006BE4
:1015900018B10020704701207047022070470000FA
:1015A000300000202DE9F0412E4C0027206B40B187
:1015B000A069401CA061E06900B101273846BDE880
:1015C000F081E668761CE66013D1606B006838B184
:1015D000502080F31188BFF34F8FBFF36F8FFEE76A
:1015E000606BA16B6163A063206A401C2062FFF7FF
:1015F0002DFDA06ADFF87080864209D3606B006819
:1016000080B1606BC068C568686886420DD2A06210
:101610002068C06A00EB800158F821000128CAD96F
:101620000127C8E74FF0FF30F1E7281DFFF7B4FDB1
:10163000A86A18B105F11800FFF7AEFDE86A0121AC
:10164000226981401143216100EB800108EB810098
:10165000291DFFF7D9FDE86A2168C96A8842CDD300
:101660000127CBE730000020640C00202DE9F04773
:101670002C4D00242746286B38B1FFF7D1FD286B8D
:10168000401E2863286B40B146E0502080F311884B
:10169000BFF34F8FBFF36F8FFEE7A968224E012083
:1016A000D1B3A6F1B40980463068E8B1F068C468E7
:1016B00004F11800FFF770FD201DFFF76DFDE06AD3
:1016C0002A6908FA00F11143296100EB800109EB56
:1016D0008100211DFFF798FDE06A2968C96A8842E8
:1016E000E2D3C5F81C80DFE70CB1FFF7AFFCAC69B3
:1016F00044B14646FFF756FF00B1EE61641EF9D1D2
:101700000020A861E86938B1084901273807086056
:10171000BFF34F8FBFF36F8FFFF7A2FD3846BDE8D1
:10172000F087000030000020180D002004ED00E0DC
:101730004C170008950A0008000000000000000097
:101740008000000000000000010203045374617275
:10175000745F5461736B000078170008000000206C
:101760006C000000C20C0008E41700086C000020A8
:10177000EC100000D20C0008000000000000000087
:1017800000093D0000000000000000000000000013
:101790000000000000000000000000000000000049
:1017A000AAAAAAAA00000000000000000000000091
:1017B0000000000000000000000000000000000029
:1017C0000000000000000000000000000000000019
:1017D0000000000000000000000000000000000009
:0417E0000000000005
:040000050800018965
:00000001FF
